{
  "_format": "hh-sol-artifact-1",
  "contractName": "Resume",
  "sourceName": "contracts/Resume.sol",
  "abi": [
    {
      "anonymous": false,
      "inputs": [
        {
          "indexed": true,
          "internalType": "address",
          "name": "user",
          "type": "address"
        },
        {
          "indexed": false,
          "internalType": "string",
          "name": "name",
          "type": "string"
        },
        {
          "indexed": false,
          "internalType": "string",
          "name": "email",
          "type": "string"
        },
        {
          "indexed": false,
          "internalType": "string",
          "name": "experience",
          "type": "string"
        },
        {
          "indexed": false,
          "internalType": "string",
          "name": "education",
          "type": "string"
        },
        {
          "indexed": false,
          "internalType": "string",
          "name": "hashValue",
          "type": "string"
        }
      ],
      "name": "ResumeUploaded",
      "type": "event"
    },
    {
      "inputs": [
        {
          "internalType": "string",
          "name": "_name",
          "type": "string"
        },
        {
          "internalType": "string",
          "name": "_email",
          "type": "string"
        },
        {
          "internalType": "string",
          "name": "_experience",
          "type": "string"
        },
        {
          "internalType": "string",
          "name": "_education",
          "type": "string"
        },
        {
          "internalType": "string",
          "name": "_hashValue",
          "type": "string"
        }
      ],
      "name": "addResume",
      "outputs": [],
      "stateMutability": "nonpayable",
      "type": "function"
    },
    {
      "inputs": [
        {
          "internalType": "address",
          "name": "",
          "type": "address"
        }
      ],
      "name": "resumes",
      "outputs": [
        {
          "internalType": "string",
          "name": "name",
          "type": "string"
        },
        {
          "internalType": "string",
          "name": "email",
          "type": "string"
        },
        {
          "internalType": "string",
          "name": "experience",
          "type": "string"
        },
        {
          "internalType": "string",
          "name": "education",
          "type": "string"
        },
        {
          "internalType": "string",
          "name": "hashValue",
          "type": "string"
        }
      ],
      "stateMutability": "view",
      "type": "function"
    }
  ],
  "bytecode": "0x608060405234801561001057600080fd5b50610985806100206000396000f3fe608060405234801561001057600080fd5b50600436106100365760003560e01c80637dad67d01461003b578063f82dbb5a14610057575b600080fd5b61005560048036038101906100509190610608565b61008b565b005b610071600480360381019061006c91906105df565b6101e1565b604051610082959493929190610730565b60405180910390f35b6040518060a00160405280868152602001858152602001848152602001838152602001828152506000803373ffffffffffffffffffffffffffffffffffffffff1673ffffffffffffffffffffffffffffffffffffffff168152602001908152602001600020600082015181600001908051906020019061010c9291906104bf565b5060208201518160010190805190602001906101299291906104bf565b5060408201518160020190805190602001906101469291906104bf565b5060608201518160030190805190602001906101639291906104bf565b5060808201518160040190805190602001906101809291906104bf565b509050503373ffffffffffffffffffffffffffffffffffffffff167f13280785f94a0ff8bde83711a96f17570d79369038546f2777b6a26639ea414386868686866040516101d2959493929190610730565b60405180910390a25050505050565b600060205280600052604060002060009150905080600001805461020490610897565b80601f016020809104026020016040519081016040528092919081815260200182805461023090610897565b801561027d5780601f106102525761010080835404028352916020019161027d565b820191906000526020600020905b81548152906001019060200180831161026057829003601f168201915b50505050509080600101805461029290610897565b80601f01602080910402602001604051908101604052809291908181526020018280546102be90610897565b801561030b5780601f106102e05761010080835404028352916020019161030b565b820191906000526020600020905b8154815290600101906020018083116102ee57829003601f168201915b50505050509080600201805461032090610897565b80601f016020809104026020016040519081016040528092919081815260200182805461034c90610897565b80156103995780601f1061036e57610100808354040283529160200191610399565b820191906000526020600020905b81548152906001019060200180831161037c57829003601f168201915b5050505050908060030180546103ae90610897565b80601f01602080910402602001604051908101604052809291908181526020018280546103da90610897565b80156104275780601f106103fc57610100808354040283529160200191610427565b820191906000526020600020905b81548152906001019060200180831161040a57829003601f168201915b50505050509080600401805461043c90610897565b80601f016020809104026020016040519081016040528092919081815260200182805461046890610897565b80156104b55780601f1061048a576101008083540402835291602001916104b5565b820191906000526020600020905b81548152906001019060200180831161049857829003601f168201915b5050505050905085565b8280546104cb90610897565b90600052602060002090601f0160209004810192826104ed5760008555610534565b82601f1061050657805160ff1916838001178555610534565b82800160010185558215610534579182015b82811115610533578251825591602001919060010190610518565b5b5090506105419190610545565b5090565b5b8082111561055e576000816000905550600101610546565b5090565b6000610575610570846107d7565b6107a6565b90508281526020810184848401111561058d57600080fd5b610598848285610855565b509392505050565b6000813590506105af81610938565b92915050565b600082601f8301126105c657600080fd5b81356105d6848260208601610562565b91505092915050565b6000602082840312156105f157600080fd5b60006105ff848285016105a0565b91505092915050565b600080600080600060a0868803121561062057600080fd5b600086013567ffffffffffffffff81111561063a57600080fd5b610646888289016105b5565b955050602086013567ffffffffffffffff81111561066357600080fd5b61066f888289016105b5565b945050604086013567ffffffffffffffff81111561068c57600080fd5b610698888289016105b5565b935050606086013567ffffffffffffffff8111156106b557600080fd5b6106c1888289016105b5565b925050608086013567ffffffffffffffff8111156106de57600080fd5b6106ea888289016105b5565b9150509295509295909350565b600061070282610807565b61070c8185610812565b935061071c818560208601610864565b61072581610927565b840191505092915050565b600060a082019050818103600083015261074a81886106f7565b9050818103602083015261075e81876106f7565b9050818103604083015261077281866106f7565b9050818103606083015261078681856106f7565b9050818103608083015261079a81846106f7565b90509695505050505050565b6000604051905081810181811067ffffffffffffffff821117156107cd576107cc6108f8565b5b8060405250919050565b600067ffffffffffffffff8211156107f2576107f16108f8565b5b601f19601f8301169050602081019050919050565b600081519050919050565b600082825260208201905092915050565b600061082e82610835565b9050919050565b600073ffffffffffffffffffffffffffffffffffffffff82169050919050565b82818337600083830152505050565b60005b83811015610882578082015181840152602081019050610867565b83811115610891576000848401525b50505050565b600060028204905060018216806108af57607f821691505b602082108114156108c3576108c26108c9565b5b50919050565b7f4e487b7100000000000000000000000000000000000000000000000000000000600052602260045260246000fd5b7f4e487b7100000000000000000000000000000000000000000000000000000000600052604160045260246000fd5b6000601f19601f8301169050919050565b61094181610823565b811461094c57600080fd5b5056fea2646970667358221220dd4541423ed1f8348de30025949db8275dafbb5e86226091129939173df9a7aa64736f6c63430008000033",
  "linkReferences": {},
  "deployedLinkReferences": {}
}